{
  "_format": "hh-sol-artifact-1",
  "contractName": "DeadmanSwitch",
  "sourceName": "contracts/DeadmanSwitch.sol",
  "abi": [
    {
      "inputs": [
        {
          "internalType": "address",
          "name": "_presetAddress",
          "type": "address"
        }
      ],
      "stateMutability": "nonpayable",
      "type": "constructor"
    },
    {
      "anonymous": false,
      "inputs": [
        {
          "indexed": true,
          "internalType": "address",
          "name": "previousOwner",
          "type": "address"
        },
        {
          "indexed": true,
          "internalType": "address",
          "name": "newOwner",
          "type": "address"
        }
      ],
      "name": "OwnershipTransferred",
      "type": "event"
    },
    {
      "stateMutability": "payable",
      "type": "fallback"
    },
    {
      "inputs": [],
      "name": "latestBlockWhenCalled",
      "outputs": [
        {
          "internalType": "uint256",
          "name": "",
          "type": "uint256"
        }
      ],
      "stateMutability": "view",
      "type": "function"
    },
    {
      "inputs": [],
      "name": "owner",
      "outputs": [
        {
          "internalType": "address",
          "name": "",
          "type": "address"
        }
      ],
      "stateMutability": "view",
      "type": "function"
    },
    {
      "inputs": [],
      "name": "presetAddress",
      "outputs": [
        {
          "internalType": "address payable",
          "name": "",
          "type": "address"
        }
      ],
      "stateMutability": "view",
      "type": "function"
    },
    {
      "inputs": [],
      "name": "renounceOwnership",
      "outputs": [],
      "stateMutability": "nonpayable",
      "type": "function"
    },
    {
      "inputs": [],
      "name": "still_alive",
      "outputs": [],
      "stateMutability": "nonpayable",
      "type": "function"
    },
    {
      "inputs": [],
      "name": "transferFunds",
      "outputs": [],
      "stateMutability": "nonpayable",
      "type": "function"
    },
    {
      "inputs": [
        {
          "internalType": "address",
          "name": "newOwner",
          "type": "address"
        }
      ],
      "name": "transferOwnership",
      "outputs": [],
      "stateMutability": "nonpayable",
      "type": "function"
    },
    {
      "inputs": [
        {
          "internalType": "address",
          "name": "_newPresetAddress",
          "type": "address"
        }
      ],
      "name": "updatePresetAddress",
      "outputs": [],
      "stateMutability": "nonpayable",
      "type": "function"
    },
    {
      "stateMutability": "payable",
      "type": "receive"
    }
  ],
  "bytecode": "0x60806040523480156200001157600080fd5b5060405162000d5938038062000d59833981810160405281019062000037919062000288565b620000576200004b6200015260201b60201c565b6200015a60201b60201c565b600073ffffffffffffffffffffffffffffffffffffffff168173ffffffffffffffffffffffffffffffffffffffff1614158015620000c157503373ffffffffffffffffffffffffffffffffffffffff168173ffffffffffffffffffffffffffffffffffffffff1614155b62000103576040517f08c379a0000000000000000000000000000000000000000000000000000000008152600401620000fa906200031b565b60405180910390fd5b80600160006101000a81548173ffffffffffffffffffffffffffffffffffffffff021916908373ffffffffffffffffffffffffffffffffffffffff16021790555043600281905550506200033d565b600033905090565b60008060009054906101000a900473ffffffffffffffffffffffffffffffffffffffff169050816000806101000a81548173ffffffffffffffffffffffffffffffffffffffff021916908373ffffffffffffffffffffffffffffffffffffffff1602179055508173ffffffffffffffffffffffffffffffffffffffff168173ffffffffffffffffffffffffffffffffffffffff167f8be0079c531659141344cd1fd0a4f28419497f9722a3daafe3b4186f6b6457e060405160405180910390a35050565b600080fd5b600073ffffffffffffffffffffffffffffffffffffffff82169050919050565b6000620002508262000223565b9050919050565b620002628162000243565b81146200026e57600080fd5b50565b600081519050620002828162000257565b92915050565b600060208284031215620002a157620002a06200021e565b5b6000620002b18482850162000271565b91505092915050565b600082825260208201905092915050565b7f496e76616c696420707265736574206164647265737300000000000000000000600082015250565b600062000303601683620002ba565b91506200031082620002cb565b602082019050919050565b600060208201905081810360008301526200033681620002f4565b9050919050565b610a0c806200034d6000396000f3fe60806040526004361061007f5760003560e01c80638da5cb5b1161004e5780638da5cb5b146100f85780639c6875dc14610123578063ea20963c1461014c578063f2fde38b1461017757610086565b80632eb3a6ac146100885780633c68eb81146100b35780633d58225a146100ca578063715018a6146100e157610086565b3661008657005b005b34801561009457600080fd5b5061009d6101a0565b6040516100aa91906106a1565b60405180910390f35b3480156100bf57600080fd5b506100c86101a6565b005b3480156100d657600080fd5b506100df6102a1565b005b3480156100ed57600080fd5b506100f6610326565b005b34801561010457600080fd5b5061010d6103ae565b60405161011a91906106fd565b60405180910390f35b34801561012f57600080fd5b5061014a60048036038101906101459190610749565b6103d7565b005b34801561015857600080fd5b5061016161049e565b60405161016e9190610797565b60405180910390f35b34801561018357600080fd5b5061019e60048036038101906101999190610749565b6104c4565b005b60025481565b6000471180156101c35750600a600254436101c191906107e1565b115b1561029f57436002819055506000600160009054906101000a900473ffffffffffffffffffffffffffffffffffffffff1673ffffffffffffffffffffffffffffffffffffffff164760405161021790610846565b60006040518083038185875af1925050503d8060008114610254576040519150601f19603f3d011682016040523d82523d6000602084013e610259565b606091505b505090508061029d576040517f08c379a0000000000000000000000000000000000000000000000000000000008152600401610294906108b8565b60405180910390fd5b505b565b6102a96105bc565b73ffffffffffffffffffffffffffffffffffffffff166102c76103ae565b73ffffffffffffffffffffffffffffffffffffffff161461031d576040517f08c379a000000000000000000000000000000000000000000000000000000000815260040161031490610924565b60405180910390fd5b43600281905550565b61032e6105bc565b73ffffffffffffffffffffffffffffffffffffffff1661034c6103ae565b73ffffffffffffffffffffffffffffffffffffffff16146103a2576040517f08c379a000000000000000000000000000000000000000000000000000000000815260040161039990610924565b60405180910390fd5b6103ac60006105c4565b565b60008060009054906101000a900473ffffffffffffffffffffffffffffffffffffffff16905090565b6103df6105bc565b73ffffffffffffffffffffffffffffffffffffffff166103fd6103ae565b73ffffffffffffffffffffffffffffffffffffffff1614610453576040517f08c379a000000000000000000000000000000000000000000000000000000000815260040161044a90610924565b60405180910390fd5b80600160006101000a81548173ffffffffffffffffffffffffffffffffffffffff021916908373ffffffffffffffffffffffffffffffffffffffff1602179055504360028190555050565b600160009054906101000a900473ffffffffffffffffffffffffffffffffffffffff1681565b6104cc6105bc565b73ffffffffffffffffffffffffffffffffffffffff166104ea6103ae565b73ffffffffffffffffffffffffffffffffffffffff1614610540576040517f08c379a000000000000000000000000000000000000000000000000000000000815260040161053790610924565b60405180910390fd5b600073ffffffffffffffffffffffffffffffffffffffff168173ffffffffffffffffffffffffffffffffffffffff1614156105b0576040517f08c379a00000000000000000000000000000000000000000000000000000000081526004016105a7906109b6565b60405180910390fd5b6105b9816105c4565b50565b600033905090565b60008060009054906101000a900473ffffffffffffffffffffffffffffffffffffffff169050816000806101000a81548173ffffffffffffffffffffffffffffffffffffffff021916908373ffffffffffffffffffffffffffffffffffffffff1602179055508173ffffffffffffffffffffffffffffffffffffffff168173ffffffffffffffffffffffffffffffffffffffff167f8be0079c531659141344cd1fd0a4f28419497f9722a3daafe3b4186f6b6457e060405160405180910390a35050565b6000819050919050565b61069b81610688565b82525050565b60006020820190506106b66000830184610692565b92915050565b600073ffffffffffffffffffffffffffffffffffffffff82169050919050565b60006106e7826106bc565b9050919050565b6106f7816106dc565b82525050565b600060208201905061071260008301846106ee565b92915050565b600080fd5b610726816106dc565b811461073157600080fd5b50565b6000813590506107438161071d565b92915050565b60006020828403121561075f5761075e610718565b5b600061076d84828501610734565b91505092915050565b6000610781826106bc565b9050919050565b61079181610776565b82525050565b60006020820190506107ac6000830184610788565b92915050565b7f4e487b7100000000000000000000000000000000000000000000000000000000600052601160045260246000fd5b60006107ec82610688565b91506107f783610688565b92508282101561080a576108096107b2565b5b828203905092915050565b600081905092915050565b50565b6000610830600083610815565b915061083b82610820565b600082019050919050565b600061085182610823565b9150819050919050565b600082825260208201905092915050565b7f5472616e73666572206f662066756e6473206661696c65642100000000000000600082015250565b60006108a260198361085b565b91506108ad8261086c565b602082019050919050565b600060208201905081810360008301526108d181610895565b9050919050565b7f4f776e61626c653a2063616c6c6572206973206e6f7420746865206f776e6572600082015250565b600061090e60208361085b565b9150610919826108d8565b602082019050919050565b6000602082019050818103600083015261093d81610901565b9050919050565b7f4f776e61626c653a206e6577206f776e657220697320746865207a65726f206160008201527f6464726573730000000000000000000000000000000000000000000000000000602082015250565b60006109a060268361085b565b91506109ab82610944565b604082019050919050565b600060208201905081810360008301526109cf81610993565b905091905056fea2646970667358221220de151ca0c5c971bca67c097fab226d96b2f0ed4a9f6a74d5de129179f6c34edc64736f6c63430008090033",
  "linkReferences": {},
  "deployedLinkReferences": {}
}