{
  "_format": "hh-sol-artifact-1",
  "contractName": "DeadmanSwitch",
  "sourceName": "contracts/DeadmanSwitch.sol",
  "abi": [
    {
      "inputs": [
        {
          "internalType": "address",
          "name": "_presetAddress",
          "type": "address"
        }
      ],
      "stateMutability": "nonpayable",
      "type": "constructor"
    },
    {
      "anonymous": false,
      "inputs": [
        {
          "indexed": true,
          "internalType": "address",
          "name": "previousOwner",
          "type": "address"
        },
        {
          "indexed": true,
          "internalType": "address",
          "name": "newOwner",
          "type": "address"
        }
      ],
      "name": "OwnershipTransferred",
      "type": "event"
    },
    {
      "stateMutability": "payable",
      "type": "fallback"
    },
    {
      "inputs": [],
      "name": "latestBlockWhenCalled",
      "outputs": [
        {
          "internalType": "uint256",
          "name": "",
          "type": "uint256"
        }
      ],
      "stateMutability": "view",
      "type": "function"
    },
    {
      "inputs": [],
      "name": "owner",
      "outputs": [
        {
          "internalType": "address",
          "name": "",
          "type": "address"
        }
      ],
      "stateMutability": "view",
      "type": "function"
    },
    {
      "inputs": [],
      "name": "presetAddress",
      "outputs": [
        {
          "internalType": "address payable",
          "name": "",
          "type": "address"
        }
      ],
      "stateMutability": "view",
      "type": "function"
    },
    {
      "inputs": [],
      "name": "renounceOwnership",
      "outputs": [],
      "stateMutability": "nonpayable",
      "type": "function"
    },
    {
      "inputs": [],
      "name": "still_alive",
      "outputs": [],
      "stateMutability": "nonpayable",
      "type": "function"
    },
    {
      "inputs": [],
      "name": "transferFunds",
      "outputs": [],
      "stateMutability": "nonpayable",
      "type": "function"
    },
    {
      "inputs": [
        {
          "internalType": "address",
          "name": "newOwner",
          "type": "address"
        }
      ],
      "name": "transferOwnership",
      "outputs": [],
      "stateMutability": "nonpayable",
      "type": "function"
    },
    {
      "inputs": [
        {
          "internalType": "address",
          "name": "_newPresetAddress",
          "type": "address"
        }
      ],
      "name": "updatePresetAddress",
      "outputs": [],
      "stateMutability": "nonpayable",
      "type": "function"
    },
    {
      "stateMutability": "payable",
      "type": "receive"
    }
  ],
  "bytecode": "0x60806040523480156200001157600080fd5b5060405162000e6938038062000e69833981810160405281019062000037919062000288565b620000576200004b6200015260201b60201c565b6200015a60201b60201c565b600073ffffffffffffffffffffffffffffffffffffffff168173ffffffffffffffffffffffffffffffffffffffff1614158015620000c157503373ffffffffffffffffffffffffffffffffffffffff168173ffffffffffffffffffffffffffffffffffffffff1614155b62000103576040517f08c379a0000000000000000000000000000000000000000000000000000000008152600401620000fa906200031b565b60405180910390fd5b80600160006101000a81548173ffffffffffffffffffffffffffffffffffffffff021916908373ffffffffffffffffffffffffffffffffffffffff16021790555043600281905550506200033d565b600033905090565b60008060009054906101000a900473ffffffffffffffffffffffffffffffffffffffff169050816000806101000a81548173ffffffffffffffffffffffffffffffffffffffff021916908373ffffffffffffffffffffffffffffffffffffffff1602179055508173ffffffffffffffffffffffffffffffffffffffff168173ffffffffffffffffffffffffffffffffffffffff167f8be0079c531659141344cd1fd0a4f28419497f9722a3daafe3b4186f6b6457e060405160405180910390a35050565b600080fd5b600073ffffffffffffffffffffffffffffffffffffffff82169050919050565b6000620002508262000223565b9050919050565b620002628162000243565b81146200026e57600080fd5b50565b600081519050620002828162000257565b92915050565b600060208284031215620002a157620002a06200021e565b5b6000620002b18482850162000271565b91505092915050565b600082825260208201905092915050565b7f496e76616c696420707265736574206164647265737300000000000000000000600082015250565b600062000303601683620002ba565b91506200031082620002cb565b602082019050919050565b600060208201905081810360008301526200033681620002f4565b9050919050565b610b1c806200034d6000396000f3fe60806040526004361061007f5760003560e01c80638da5cb5b1161004e5780638da5cb5b146100f85780639c6875dc14610123578063ea20963c1461014c578063f2fde38b1461017757610086565b80632eb3a6ac146100885780633c68eb81146100b35780633d58225a146100ca578063715018a6146100e157610086565b3661008657005b005b34801561009457600080fd5b5061009d6101a0565b6040516100aa9190610745565b60405180910390f35b3480156100bf57600080fd5b506100c86101a6565b005b3480156100d657600080fd5b506100df61029d565b005b3480156100ed57600080fd5b506100f6610322565b005b34801561010457600080fd5b5061010d6103aa565b60405161011a91906107a1565b60405180910390f35b34801561012f57600080fd5b5061014a600480360381019061014591906107ed565b6103d3565b005b34801561015857600080fd5b50610161610542565b60405161016e919061083b565b60405180910390f35b34801561018357600080fd5b5061019e600480360381019061019991906107ed565b610568565b005b60025481565b6000471180156101c35750600a600254436101c19190610885565b115b6101cc57600080fd5b6000600160009054906101000a900473ffffffffffffffffffffffffffffffffffffffff1673ffffffffffffffffffffffffffffffffffffffff1647604051610214906108ea565b60006040518083038185875af1925050503d8060008114610251576040519150601f19603f3d011682016040523d82523d6000602084013e610256565b606091505b505090508061029a576040517f08c379a00000000000000000000000000000000000000000000000000000000081526004016102919061095c565b60405180910390fd5b50565b6102a5610660565b73ffffffffffffffffffffffffffffffffffffffff166102c36103aa565b73ffffffffffffffffffffffffffffffffffffffff1614610319576040517f08c379a0000000000000000000000000000000000000000000000000000000008152600401610310906109c8565b60405180910390fd5b43600281905550565b61032a610660565b73ffffffffffffffffffffffffffffffffffffffff166103486103aa565b73ffffffffffffffffffffffffffffffffffffffff161461039e576040517f08c379a0000000000000000000000000000000000000000000000000000000008152600401610395906109c8565b60405180910390fd5b6103a86000610668565b565b60008060009054906101000a900473ffffffffffffffffffffffffffffffffffffffff16905090565b6103db610660565b73ffffffffffffffffffffffffffffffffffffffff166103f96103aa565b73ffffffffffffffffffffffffffffffffffffffff161461044f576040517f08c379a0000000000000000000000000000000000000000000000000000000008152600401610446906109c8565b60405180910390fd5b600073ffffffffffffffffffffffffffffffffffffffff168173ffffffffffffffffffffffffffffffffffffffff16141580156104b857503373ffffffffffffffffffffffffffffffffffffffff168173ffffffffffffffffffffffffffffffffffffffff1614155b6104f7576040517f08c379a00000000000000000000000000000000000000000000000000000000081526004016104ee90610a34565b60405180910390fd5b80600160006101000a81548173ffffffffffffffffffffffffffffffffffffffff021916908373ffffffffffffffffffffffffffffffffffffffff1602179055504360028190555050565b600160009054906101000a900473ffffffffffffffffffffffffffffffffffffffff1681565b610570610660565b73ffffffffffffffffffffffffffffffffffffffff1661058e6103aa565b73ffffffffffffffffffffffffffffffffffffffff16146105e4576040517f08c379a00000000000000000000000000000000000000000000000000000000081526004016105db906109c8565b60405180910390fd5b600073ffffffffffffffffffffffffffffffffffffffff168173ffffffffffffffffffffffffffffffffffffffff161415610654576040517f08c379a000000000000000000000000000000000000000000000000000000000815260040161064b90610ac6565b60405180910390fd5b61065d81610668565b50565b600033905090565b60008060009054906101000a900473ffffffffffffffffffffffffffffffffffffffff169050816000806101000a81548173ffffffffffffffffffffffffffffffffffffffff021916908373ffffffffffffffffffffffffffffffffffffffff1602179055508173ffffffffffffffffffffffffffffffffffffffff168173ffffffffffffffffffffffffffffffffffffffff167f8be0079c531659141344cd1fd0a4f28419497f9722a3daafe3b4186f6b6457e060405160405180910390a35050565b6000819050919050565b61073f8161072c565b82525050565b600060208201905061075a6000830184610736565b92915050565b600073ffffffffffffffffffffffffffffffffffffffff82169050919050565b600061078b82610760565b9050919050565b61079b81610780565b82525050565b60006020820190506107b66000830184610792565b92915050565b600080fd5b6107ca81610780565b81146107d557600080fd5b50565b6000813590506107e7816107c1565b92915050565b600060208284031215610803576108026107bc565b5b6000610811848285016107d8565b91505092915050565b600061082582610760565b9050919050565b6108358161081a565b82525050565b6000602082019050610850600083018461082c565b92915050565b7f4e487b7100000000000000000000000000000000000000000000000000000000600052601160045260246000fd5b60006108908261072c565b915061089b8361072c565b9250828210156108ae576108ad610856565b5b828203905092915050565b600081905092915050565b50565b60006108d46000836108b9565b91506108df826108c4565b600082019050919050565b60006108f5826108c7565b9150819050919050565b600082825260208201905092915050565b7f5472616e73666572206f662066756e6473206661696c65642100000000000000600082015250565b60006109466019836108ff565b915061095182610910565b602082019050919050565b6000602082019050818103600083015261097581610939565b9050919050565b7f4f776e61626c653a2063616c6c6572206973206e6f7420746865206f776e6572600082015250565b60006109b26020836108ff565b91506109bd8261097c565b602082019050919050565b600060208201905081810360008301526109e1816109a5565b9050919050565b7f496e76616c696420707265736574206164647265737300000000000000000000600082015250565b6000610a1e6016836108ff565b9150610a29826109e8565b602082019050919050565b60006020820190508181036000830152610a4d81610a11565b9050919050565b7f4f776e61626c653a206e6577206f776e657220697320746865207a65726f206160008201527f6464726573730000000000000000000000000000000000000000000000000000602082015250565b6000610ab06026836108ff565b9150610abb82610a54565b604082019050919050565b60006020820190508181036000830152610adf81610aa3565b905091905056fea2646970667358221220a1fb4d3a07d0086160023c93a96af5dd73aca736c98f5476d15dbcb9d5c6049664736f6c63430008090033",
  "linkReferences": {},
  "deployedLinkReferences": {}
}